:020000040800F2
:100000003408002081040008DD040008DD04000835
:10001000DD040008DD040008DD0400080000000025
:10002000000000000000000000000000DD040008E7
:10003000DD04000800000000DD040008DD04000805
:10004000DD040008DD040008DD040008DD0400080C
:10005000DD040008DD040008DD040008DD040008FC
:10006000DD040008DD040008DD040008DD040008EC
:10007000DD040008DD040008DD040008DD040008DC
:10008000DD040008DD040008DD040008DD040008CC
:10009000DD040008DD040008DD040008DD040008BC
:1000A000DD040008DD040008DD040008DD040008AC
:1000B000DD040008DD040008DD040008DD0400089C
:1000C000DD040008DD040008DD040008DD0400088C
:1000D000DD040008DD040008DD0400081505000843
:1000E000DD040008DD040008DD040008DD0400086C
:1000F000DD040008DD040008DD040008DD0400085C
:10010000DD040008DD040008DD040008DD0400084B
:10011000DD040008DD040008DD040008DD0400083B
:10012000DD040008DD040008DD040008DD0400082B
:10013000DD040008DD040008DD040008DD0400081B
:10014000DD040008DD040008DD040008DD0400080B
:10015000DD040008DD040008DD040008DD040008FB
:10016000DD040008DD040008DD040008DD040008EB
:10017000DD040008DD040008DD040008DD040008DB
:10018000DD040008DD04000880B58AB000AF7860A7
:10019000396000237B6200233B620023FB61002364
:1001A000BB617B681B8A9BB27B627B6A23F44053F2
:1001B0007B623B68DB881A467B6A13437B627B6AFF
:1001C0009AB27B681A827B689B899BB27B627B6A4E
:1001D00023F4B05323F00C037B623B689A883B689E
:1001E0001B8913439AB23B685B8913439BB21A463F
:1001F0007B6A13437B627B6A9AB27B689A817B68D5
:100200009B8A9BB27B627B6A23F440737B623B6870
:100210009B891A467B6A13437B627B6A9AB27B682E
:100220009A8207F10803184600F0B4FB7B68304A55
:10023000934203D07B682F4A934202D17B693B6291
:1002400001E03B693B627B689B899BB21BB2002B40
:100250000CDA3A6A13469B0013449A001A443B682E
:100260001B685B00B2FBF3F3FB610BE03A6A1346D9
:100270009B0013449A001A443B681B689B00B2FB26
:10028000F3F3FB61FB691C4AA2FB03235B091B011F
:100290007B627B6A1B09642202FB03F3FA69D31AAF
:1002A000BB617B689B899BB21BB2002B0CDABB69DC
:1002B000DB003233104AA2FB03235B0903F0070380
:1002C0007A6A13437B620BE0BB691B0132330A4A33
:1002D000A2FB03235B0903F00F037A6A13437B62DB
:1002E0007B6A9AB27B681A8100BF2837BD4680BD01
:1002F00000100140001401401F85EB5180B483B011
:1003000000AF78600B46FB70FB78002B08D07B6851
:100310009B899BB243F400539AB27B689A8107E0B1
:100320007B689B899BB223F400539AB27B689A81C5
:1003300000BF0C37BD4680BC704700BF80B487B09B
:1003400000AF78600B467B8013467B7000233B61D7
:100350000023FB600023BB6000237B617B687B6123
:100360007B88DBB25B09DBB23B617B8803F01F0358
:10037000FB600122FB6802FA03F3BB603B69012BBF
:1003800003D17B690C337B6109E03B69022B03D10C
:100390007B6910337B6102E07B6914337B617B787E
:1003A000002B06D07B697A691168BA680A431A6023
:1003B00006E07B697A691168BA68D2430A401A601C
:1003C00000BF1C37BD4680BC704700BF80B487B0FB
:1003D00000AF78600B467B800023FB6000237B61CD
:1003E0000023BB600023FB747B88DBB25B09DBB2BC
:1003F000BB607B8803F01F037B6101227B6902FAEB
:1004000003F37B61BB68012B07D17B689B899BB29F
:100410001A467B6913407B6111E0BB68022B07D150
:100420007B681B8A9BB21A467B6913407B6106E09E
:100430007B689B8A9BB21A467B6913407B617B88F1
:100440001B0A9BB2FB600122FB6802FA03F3FB600C
:100450007B681B889BB21A46FB681340FB607B6974
:10046000002B05D0FB68002B02D00123FB7401E0B8
:100470000023FB74FB7C18461C37BD4680BC7047CC
:1004800080B582B000AF104B7B60104B3B6007E043
:100490003B681A1D3A607A68111D796012681A600B
:1004A0003B680B4A9342F3D30A480B494FF00002D2
:1004B0008842B8BF40F8042BFADB00F00BF900BF0C
:1004C0000837BD4680BD00BF681800080000002046
:1004D00018000020180000203400002080B400AF75
:1004E000FEE700BF80B483B000AF0346FB7108494C
:1004F00097F907305B09FA7902F01F02012000FA30
:1005000002F241F8232000BF0C37BD4680BC704783
:1005100000E100E080B500AF40F225516648FFF7EA
:1005200055FF0346002B00F0C480634B9B889BB2B1
:100530001A46624B1A60614B1B682A3B392B00F24A
:10054000B88001A252F823F031060008B306000873
:10055000B3060008B3060008B3060008B306000897
:10056000310600083106000831060008310600088F
:10057000310600083106000831060008310600087F
:100580003106000831060008B3060008B30600086B
:10059000B3060008B3060008B3060008B306000857
:1005A000B3060008B3060008B3060008B306000847
:1005B000B3060008B3060008B3060008B306000837
:1005C000B3060008B3060008B3060008B306000827
:1005D000B3060008B3060008B3060008B306000817
:1005E000B3060008B3060008B3060008B306000807
:1005F000B3060008B3060008B3060008B3060008F7
:10060000B3060008B3060008B3060008B3060008E6
:10061000B3060008B3060008B3060008B3060008D6
:10062000B3060008970600089F060008A906000800
:10063000234B1B68012B08D1204B1B68303B214A00
:1006400013601F4B00221A6033E01C4B1B682A2BDF
:1006500008D11C4B1B68184600F0ECFE02461A4BF2
:100660001A6014E0154B1B68303B184A1360154B99
:100670001A6813469B0013445B001A46134B1B6811
:100680001344184600F0D6FE02460F4B1A600C4B7E
:1006900001221A600DE00E4B00221A6009E00C4B9B
:1006A00040F6C4121A6004E0094B40F6FF721A606B
:1006B00000BF00BF80BD00BF0048004030000020E8
:1006C0000000002020000020240000202C0000203A
:1006D0000400002080B592B000AF00F0E9FC0121D9
:1006E000012000F001FA01214FF4807000F038FA87
:1006F00001214FF4007000F033FA03233B6403231D
:1007000087F84430002387F8473007F14003194643
:10071000924800F0DBFB00233B6300237B63002354
:10072000BB630023FB6307F13003184600F08AFA2D
:100730000023BB6100233B7701237B7700237B628F
:1007400000233B620023BB62012387F82C3007F1B2
:1007500018031946824800F021FA0023BB610023E8
:100760003B7701237B7700237B6200233B620023DE
:10077000BB62012387F82C3007F11803194679482A
:1007800000F00CFA042301220121754800F09EFAC2
:10079000042300220221734800F098FA01217048D6
:1007A00000F078FA01216F4800F074FA012102206C
:1007B00000F09AF903233B64012387F844300123B6
:1007C00087F84630032387F84530002387F8473001
:1007D00007F140031946644800F078FB012104202A
:1007E00000F082F901214FF4802000F09BF94FF4D2
:1007F00040633B64022387F84430002387F8463087
:10080000012387F84730022387F8453007F140037A
:100810001946564800F05AFB07220A21534800F0B7
:10082000FFFB07220B21514800F0FAFB4FF416534F
:10083000BB600023BB810023FB8100233B8200239C
:10084000BB820C237B8207F1080319464848FFF757
:100850009BFC01214648FFF751FD012240F2255142
:100860004348FFF76BFD27233B7100237B71002377
:10087000BB710123FB713B1D184600F0C1FC272012
:10088000FFF730FE364800F0EBFA00BF0221344893
:1008900000F002FB0346002BF8D0314800F0F0FADC
:1008A0000346184600F0C2FD0246324B1A60324B36
:1008B0001B68184600F0BEFD02462E4B1B68194609
:1008C000104600F0C7FF0346002B04D00221264843
:1008D00000F08AFB03E00221234800F093FB21484B
:1008E00000F0BEFA00BF02211E4800F0D5FA034610
:1008F000002BF8D01B4800F0C3FA0346184600F05E
:1009000095FD02461D4B1A601C4B1B681C4918467E
:1009100000F0E4FD03461B49184600F093FE034631
:100920001949184600F0D0FC03461A46174B1A60C6
:10093000164B1A68164B1B681946104600F06CFFE0
:100940000346002B04D00121074800F04DFB99E736
:100950000121054800F056FB94E700BF000002406B
:100960000020014000210140000402400008024034
:10097000004800401800002004000020280000204B
:100980000080924300F07F45000048421C00002098
:100990002400002080B489B000AF78600023BB61E0
:1009A00000237B610023FB6102233B610023FB608A
:1009B0000223BB60484B9B6803F00C03BB61BB691F
:1009C000042B07D0082B09D0002B3FD17B68434A6A
:1009D0001A603FE07B68424A1A603BE03E4B5B682E
:1009E00003F480039B0DFB603B4B5B6803F03F030C
:1009F000BB60FB68002B0DD0394ABB68B2FBF3F239
:100A0000354B596847F6C0730B409B0903FB02F353
:100A1000FB610CE0314ABB68B2FBF3F22E4B596824
:100A200047F6C0730B409B0903FB02F3FB612A4BA3
:100A30005B6803F440331B0C01335B003B61FA69D4
:100A40003B69B2FBF3F27B681A6003E07B68234AE0
:100A50001A6000BF204B9B6803F0F003BB61BB69C9
:100A60001B09BB611F4ABB6913441B78DBB27B6166
:100A70007B681A687B69DA407B685A60164B9B6812
:100A800003F4E053BB61BB699B0ABB61154ABB69B8
:100A900013441B78DBB27B617B685A687B69DA4060
:100AA0007B689A600C4B9B6803F46043BB61BB6935
:100AB0005B0BBB610B4ABB6913441B78DBB27B61E8
:100AC0007B685A687B69DA407B68DA6000BF24374C
:100AD000BD4680BC704700BF003802400024F400CF
:100AE00000127A000800002080B483B000AF786064
:100AF0000B46FB70FB78002B06D00949084B1A6B9C
:100B00007B6813430B6306E00549054B1A6B7B6852
:100B1000DB4313400B6300BF0C37BD4680BC7047FE
:100B20000038024080B483B000AF78600B46FB70A1
:100B3000FB78002B06D00949084B1A6C7B681343DD
:100B40000B6406E00549054B1A6C7B68DB431340D8
:100B50000B6400BF0C37BD4680BC704700380240B4
:100B600080B483B000AF78600B46FB70FB78002B3D
:100B700006D00949084B5A6C7B6813434B6406E066
:100B80000549054B5A6C7B68DB4313404B6400BF3F
:100B90000C37BD4680BC70470038024080B485B039
:100BA00000AF786039600023FB600023FB727B6834
:100BB0005B68FB60FB6823F0407323F48073FB6089
:100BC0003B681B791A023B681B681343FA6813439E
:100BD000FB607B68FA685A607B689B68FB60FA6818
:100BE000174B1340FB603B681A693B68DB681A438C
:100BF0003B689B681A433B685B795B001343FA6868
:100C00001343FB607B68FA689A607B68DB6AFB6071
:100C1000FB6823F47003FB603B681B7D013BDAB289
:100C2000FB7A1343FB72FB7A1B05FA681343FB60E4
:100C30007B68FA68DA6200BF1437BD4680BC704733
:100C4000FDF7FFC080B485B000AF78600023FB6083
:100C50000E4B5B68FB60FA680D4B1340FB607B68D2
:100C60001A687B685B681A437B689B681A437B68D9
:100C7000DB681343FA681343FB60044AFB68536064
:100C800000BF1437BD4680BC704700BF0023014041
:100C9000E030FCFF80B483B000AF78600B46FB709F
:100CA000FB78002B06D07B689B6843F001027B68D1
:100CB0009A6005E07B689B6823F001027B689A607C
:100CC00000BF0C37BD4680BC704700BF80B485B004
:100CD00000AF7860084611461A460346FB700B4683
:100CE000BB7013467B700023FB600023BB60FB7866
:100CF000092B23D97B68DB68FB60FB78A3F10A0230
:100D000013465B001344072202FA03F3BB60BB687F
:100D1000DB43FA681340FB607978FB78A3F10A02A1
:100D200013465B00134401FA03F3BB60FA68BB6827
:100D30001343FB607B68FA68DA601EE07B681B691E
:100D4000FB60FA7813465B001344072202FA03F3B0
:100D5000BB60BB68DB43FA681340FB607978FA78C4
:100D600013465B00134401FA03F3BB60FA68BB68E7
:100D70001343FB607B68FA681A61BB78062B21D8A5
:100D80007B685B6BFB60BB785A1E13469B00134469
:100D90001F2202FA03F3BB60BB68DB43FA6813400F
:100DA000FB60F978BB785A1E13469B00134401FA86
:100DB00003F3BB60FA68BB681343FB607B68FA68A7
:100DC0005A6347E0BB780C2B21D87B681B6BFB6018
:100DD000BB78DA1F13469B0013441F2202FA03F369
:100DE000BB60BB68DB43FA681340FB60F978BB78F3
:100DF000DA1F13469B00134401FA03F3BB60FA6841
:100E0000BB681343FB607B68FA681A6322E07B6867
:100E1000DB6AFB60BB78A3F10D0213469B00134411
:100E20001F2202FA03F3BB60BB68DB43FA6813407E
:100E3000FB60F978BB78A3F10D0213469B001344C5
:100E400001FA03F3BB60FA68BB681343FB607B687D
:100E5000FA68DA6200BF1437BD4680BC704700BF35
:100E600080B483B000AF78607B689B6843F08042B9
:100E70007B689A6000BF0C37BD4680BC704700BFDE
:100E800080B483B000AF78607B68DB6C9BB218469F
:100E90000C37BD4680BC704780B485B000AF786029
:100EA0000B46FB700023FB737B681A68FB781340CA
:100EB000002B02D00123FB7301E00023FB73FB7BBB
:100EC00018461437BD4680BC704700BF80B487B059
:100ED00000AF7860396000237B6100233B61002311
:100EE000FB6000237B6176E001227B6902FA03F359
:100EF0003B613B681A683B691340FB60FA683B69D9
:100F00009A4265D17B681A687B695B00032101FA0C
:100F100003F3DB431A407B681A607B681A683B68FE
:100F20001B7919467B695B0001FA03F31A437B685E
:100F30001A603B681B79012B03D03B681B79022B9D
:100F40002ED17B689A687B695B00032101FA03F369
:100F5000DB431A407B689A607B689A683B685B79E0
:100F600019467B695B0001FA03F31A437B689A60B8
:100F70007B685A687B699BB2194601238B40DB432F
:100F80001A407B685A607B685B683A6892791146C0
:100F90007A6992B201FA02F292B21A437B685A60FD
:100FA0007B68DA687B699BB25B00032101FA03F37B
:100FB000DB431A407B68DA607B68DA683B68DB7980
:100FC00019467B695B0001FA03F31A437B68DA6018
:100FD0007B6901337B617B690F2B85D900BF1C378F
:100FE000BD4680BC704700BF80B483B000AF78605E
:100FF0000B467B807B687A881A8300BF0C37BD461E
:1010000080BC704780B483B000AF78600B467B80B3
:101010007B687A885A8300BF0C37BD4680BC704716
:1010200080B485B000AF78600B467B8013467B7040
:101030000023FB600023BB607A787B8803F0070302
:101040009B0002FA03F3FB607B88DB089BB2184627
:101050007B88DB089BB21A467B68083253F8222053
:101060007B8803F007039B000F2101FA03F3DB43A6
:1010700002EA03017B6800F1080243F822107B8832
:10108000DB089BB21A467B68083253F82220FB68C3
:101090001343BB607B88DB089BB21A467B6808322F
:1010A000B96843F8221000BF1437BD4680BC7047B2
:1010B00080B500AF124A124B1B6843F00103136066
:1010C0000F4B00229A600E4A0D4B1B6823F084736D
:1010D00023F4803313600A4B0A4A5A60084A084BCB
:1010E0001B6823F480231360054B0022DA6000F0B4
:1010F0000DF8054B4FF000629A6000BF80BD00BF45
:10110000003802401030002400ED00E080B483B0CD
:1011100000AF00237B6000233B60354A344B1B68E3
:1011200043F480331360324B1B6803F400333B609D
:101130007B6801337B603B68002B03D17B68B3F590
:10114000A06FF0D12A4B1B6803F40033002B02D0B0
:1011500001233B6001E000233B603B68012B42D14F
:10116000234A234B1B6C43F080531364214A214BC9
:101170001B6843F4804313601D4A1D4B9B689360BA
:101180001B4A1B4B9B6843F400439360184A184B5F
:101190009B6843F4A0539360154B174A5A60144A56
:1011A000134B1B6843F08073136000BF104B1B6828
:1011B00003F00073002BF9D0104B40F205621A6067
:1011C0000B4A0B4B9B6823F003039360084A084BC0
:1011D0009B6843F00203936000BF054B9B6803F0DC
:1011E0000C03082BF9D100BF0C37BD4680BC7047FB
:1011F000003802400070004008544007003C0240A4
:1012000080B485B000AF78600023FB730023BB730C
:101210000F237B737B68DB78002B38D0264BDB6891
:10122000DB4303F4E0631B0AFB73FB7BC3F10403A2
:10123000BB737A7BFB7B42FA03F37B737B685B783F
:101240001A46BB7B02FA03F3FB737B689A787B7BBD
:101250001340DAB2FB7B1343FB73FB7B1B01FB7375
:10126000164A7B681B781344FA7B83F80023134AE1
:101270007B681B785B09DBB218467B681B7803F040
:101280001F03012101FA03F342F820300FE00B495C
:101290007B681B785B09DBB218467B681B7803F020
:1012A0001F0301229A4000F1200341F8232000BFD0
:1012B0001437BD4680BC704700ED00E000E100E05F
:1012C00080F0004002E000BF81F0004142001FBFFB
:1012D0005FEA410392EA030F7FEA226C7FEA236C04
:1012E0006AD04FEA1262D2EB1363C1BFD2184140F9
:1012F00048404140B8BF5B42192B88BF704710F08F
:10130000004F40F4000020F07F4018BF404211F031
:10131000004F41F4000121F07F4118BF494292EA99
:10132000030F3FD0A2F1010241FA03FC10EB0C00C5
:10133000C3F1200301FA03F100F0004302D5494252
:1013400060EB4000B0F5000F13D3B0F1807F06D3FF
:1013500040084FEA310102F10102FE2A51D2B1F1F7
:10136000004F40EBC25008BF20F0010040EA0300EC
:101370007047490040EB000010F4000FA2F1010299
:10138000EDD1B0FA80FCACF1080CB2EB0C0200FA23
:101390000CF0AABF00EBC25052421843BCBFD04071
:1013A0001843704792F0000F81F4000106BF80F4EB
:1013B00000000132013BB5E74FEA41037FEA226CAE
:1013C00018BF7FEA236C21D092EA030F04D092F079
:1013D000000F08BF0846704790EA010F1CBF0020AD
:1013E000704712F07F4F04D1400028BF40F000400A
:1013F000704712F100723CBF00F50000704700F02A
:10140000004343F0FE4040F4000070477FEA226250
:1014100016BF08467FEA23630146420206BF5FEA21
:10142000412390EA010F40F4800070474FF0000321
:1014300004E000BF10F0004348BF40425FEA000CE8
:1014400008BF704743F0964301464FF000001CE090
:1014500050EA010208BF70474FF000030AE000BFE6
:1014600050EA010208BF704711F0004302D5404224
:1014700061EB41015FEA010C02BF84460146002096
:1014800043F0B64308BFA3F18053A3F50003BCFAB1
:101490008CF2083AA3EBC25310DB01FA02FC63445E
:1014A00000FA02FCC2F12002BCF1004F20FA02F265
:1014B00043EB020008BF20F00100704702F1200258
:1014C00001FA02FCC2F1200250EA4C0021FA02F2B9
:1014D00043EB020008BF20EADC7070474FF0FF0CBE
:1014E0001CEAD0521EBF1CEAD15392EA0C0F93EAB9
:1014F0000C0F6FD01A4480EA010C400218BF5FEA5B
:1015000041211ED04FF0006343EA501043EA5111CD
:10151000A0FB01310CF00040B1F5000F3EBF4900C7
:1015200041EAD3715B0040EA010062F17F02FD2ACB
:101530001DD8B3F1004F40EBC25008BF20F00100AE
:10154000704790F0000F0CF0004C08BF49024CEAC5
:10155000502040EA51207F3AC2BFD2F1FF0340EA57
:10156000C250704740F400004FF00003013A5DDCC8
:1015700012F1190FDCBF00F000407047C2F1000209
:10158000410021FA02F1C2F1200200FA02FC5FEAF6
:10159000310040F1000053EA4C0308BF20EADC7040
:1015A000704792F0000F00F0004C02BF400010F4B2
:1015B000000F013AF9D040EA0C0093F0000F01F05F
:1015C000004C02BF490011F4000F013BF9D041EA81
:1015D0000C018FE70CEAD15392EA0C0F18BF93EA83
:1015E0000C0F0AD030F0004C18BF31F0004CD8D1AD
:1015F00080EA010000F00040704790F0000F17BF34
:1016000090F0004F084691F0000F91F0004F14D079
:1016100092EA0C0F01D142020FD193EA0C0F03D1D1
:101620004B0218BF084608D180EA010000F00040D4
:1016300040F0FE4040F40000704740F0FE4040F4AF
:10164000400070474FF0FF0C1CEAD0521EBF1CEA4E
:10165000D15392EA0C0F93EA0C0F69D0A2EB03026C
:1016600080EA010C49024FEA402037D04FF0805306
:1016700043EA111143EA10130CF000408B4238BFCB
:101680005B0042F17D024FF4000C8B4224BF5B1AD9
:1016900040EA0C00B3EB510F24BFA3EB510340EA27
:1016A0005C00B3EB910F24BFA3EB910340EA9C00D5
:1016B000B3EBD10F24BFA3EBD10340EADC001B0145
:1016C00018BF5FEA1C1CE0D1FD2A3FF650AF8B42E9
:1016D00040EBC25008BF20F0010070470CF0004CF6
:1016E0004CEA50207F32C2BFD2F1FF0340EAC25021
:1016F000704740F400004FF00003013A37E792F0E2
:10170000000F00F0004C02BF400010F4000F013A3F
:10171000F9D040EA0C0093F0000F01F0004C02BF3A
:10172000490011F4000F013BF9D041EA0C0195E7A3
:101730000CEAD15392EA0C0F08D142027FF47DAF3C
:1017400093EA0C0F7FF470AF084676E793EA0C0F2C
:1017500004D14B023FF44CAF08466EE730F0004C2A
:1017600018BF31F0004CCAD130F000427FF45CAFBA
:1017700031F000437FF43CAF5FE700BF4FF0FF3C28
:1017800006E000BF4FF0010C02E000BF4FF0010C7B
:101790004DF804CD4FEA40024FEA41037FEA226C44
:1017A00018BF7FEA236C11D001B052EA530C18BF66
:1017B00090EA010F58BFB2EB030088BFC81738BFCB
:1017C0006FEAE17018BF40F0010070477FEA226CB9
:1017D00002D15FEA402C05D17FEA236CE4D15FEAB5
:1017E000412CE1D05DF8040B704700BF84460846E9
:1017F0006146FFE70FB5FFF7C9FF002848BF10F1AA
:10180000000F0FBD4DF808EDFFF7F4FF0CBF0120EE
:1018100000205DF808FB00BF4DF808EDFFF7EAFF78
:1018200034BF012000205DF808FB00BF4DF808ED33
:10183000FFF7E0FF94BF012000205DF808FB00BF28
:101840004DF808EDFFF7D2FF94BF012000205DF8AE
:1018500008FB00BF4DF808EDFFF7C8FF34BF0120BB
:0818600000205DF808FB00BF49
:1018680001000000C4090000000000000102030498
:08187800010203040607080940
:0400000508000000EF
:00000001FF
